{
  "_format": "hh-sol-artifact-1",
  "contractName": "AquaticusNFTUpgradeable",
  "sourceName": "contracts/NFT.sol",
  "abi": [
    {
      "inputs": [],
      "stateMutability": "nonpayable",
      "type": "constructor"
    },
    {
      "anonymous": false,
      "inputs": [
        {
          "indexed": true,
          "internalType": "address",
          "name": "owner",
          "type": "address"
        },
        {
          "indexed": true,
          "internalType": "address",
          "name": "approved",
          "type": "address"
        },
        {
          "indexed": true,
          "internalType": "uint256",
          "name": "tokenId",
          "type": "uint256"
        }
      ],
      "name": "Approval",
      "type": "event"
    },
    {
      "anonymous": false,
      "inputs": [
        {
          "indexed": true,
          "internalType": "address",
          "name": "owner",
          "type": "address"
        },
        {
          "indexed": true,
          "internalType": "address",
          "name": "operator",
          "type": "address"
        },
        {
          "indexed": false,
          "internalType": "bool",
          "name": "approved",
          "type": "bool"
        }
      ],
      "name": "ApprovalForAll",
      "type": "event"
    },
    {
      "anonymous": false,
      "inputs": [
        {
          "indexed": false,
          "internalType": "uint256",
          "name": "_fromTokenId",
          "type": "uint256"
        },
        {
          "indexed": false,
          "internalType": "uint256",
          "name": "_toTokenId",
          "type": "uint256"
        }
      ],
      "name": "BatchMetadataUpdate",
      "type": "event"
    },
    {
      "anonymous": false,
      "inputs": [
        {
          "indexed": false,
          "internalType": "uint8",
          "name": "version",
          "type": "uint8"
        }
      ],
      "name": "Initialized",
      "type": "event"
    },
    {
      "anonymous": false,
      "inputs": [
        {
          "indexed": false,
          "internalType": "uint256",
          "name": "_tokenId",
          "type": "uint256"
        }
      ],
      "name": "MetadataUpdate",
      "type": "event"
    },
    {
      "anonymous": false,
      "inputs": [
        {
          "indexed": true,
          "internalType": "address",
          "name": "previousOwner",
          "type": "address"
        },
        {
          "indexed": true,
          "internalType": "address",
          "name": "newOwner",
          "type": "address"
        }
      ],
      "name": "OwnershipTransferred",
      "type": "event"
    },
    {
      "anonymous": false,
      "inputs": [
        {
          "indexed": false,
          "internalType": "address",
          "name": "account",
          "type": "address"
        }
      ],
      "name": "Paused",
      "type": "event"
    },
    {
      "anonymous": false,
      "inputs": [
        {
          "indexed": true,
          "internalType": "address",
          "name": "from",
          "type": "address"
        },
        {
          "indexed": true,
          "internalType": "address",
          "name": "to",
          "type": "address"
        },
        {
          "indexed": true,
          "internalType": "uint256",
          "name": "tokenId",
          "type": "uint256"
        }
      ],
      "name": "Transfer",
      "type": "event"
    },
    {
      "anonymous": false,
      "inputs": [
        {
          "indexed": false,
          "internalType": "address",
          "name": "account",
          "type": "address"
        }
      ],
      "name": "Unpaused",
      "type": "event"
    },
    {
      "inputs": [
        {
          "internalType": "address",
          "name": "to",
          "type": "address"
        },
        {
          "internalType": "uint256",
          "name": "tokenId",
          "type": "uint256"
        }
      ],
      "name": "approve",
      "outputs": [],
      "stateMutability": "nonpayable",
      "type": "function"
    },
    {
      "inputs": [
        {
          "internalType": "address",
          "name": "owner",
          "type": "address"
        }
      ],
      "name": "balanceOf",
      "outputs": [
        {
          "internalType": "uint256",
          "name": "",
          "type": "uint256"
        }
      ],
      "stateMutability": "view",
      "type": "function"
    },
    {
      "inputs": [
        {
          "internalType": "uint256",
          "name": "tokenId",
          "type": "uint256"
        }
      ],
      "name": "burnNFT",
      "outputs": [],
      "stateMutability": "nonpayable",
      "type": "function"
    },
    {
      "inputs": [
        {
          "internalType": "uint256",
          "name": "tokenId",
          "type": "uint256"
        }
      ],
      "name": "getApproved",
      "outputs": [
        {
          "internalType": "address",
          "name": "",
          "type": "address"
        }
      ],
      "stateMutability": "view",
      "type": "function"
    },
    {
      "inputs": [
        {
          "internalType": "string",
          "name": "name",
          "type": "string"
        },
        {
          "internalType": "string",
          "name": "symbol",
          "type": "string"
        }
      ],
      "name": "initialize",
      "outputs": [],
      "stateMutability": "nonpayable",
      "type": "function"
    },
    {
      "inputs": [
        {
          "internalType": "address",
          "name": "owner",
          "type": "address"
        },
        {
          "internalType": "address",
          "name": "operator",
          "type": "address"
        }
      ],
      "name": "isApprovedForAll",
      "outputs": [
        {
          "internalType": "bool",
          "name": "",
          "type": "bool"
        }
      ],
      "stateMutability": "view",
      "type": "function"
    },
    {
      "inputs": [
        {
          "internalType": "address",
          "name": "recipient",
          "type": "address"
        },
        {
          "internalType": "string",
          "name": "uri",
          "type": "string"
        }
      ],
      "name": "mintNFT",
      "outputs": [
        {
          "internalType": "uint256",
          "name": "",
          "type": "uint256"
        }
      ],
      "stateMutability": "nonpayable",
      "type": "function"
    },
    {
      "inputs": [],
      "name": "name",
      "outputs": [
        {
          "internalType": "string",
          "name": "",
          "type": "string"
        }
      ],
      "stateMutability": "view",
      "type": "function"
    },
    {
      "inputs": [],
      "name": "owner",
      "outputs": [
        {
          "internalType": "address",
          "name": "",
          "type": "address"
        }
      ],
      "stateMutability": "view",
      "type": "function"
    },
    {
      "inputs": [
        {
          "internalType": "uint256",
          "name": "tokenId",
          "type": "uint256"
        }
      ],
      "name": "ownerOf",
      "outputs": [
        {
          "internalType": "address",
          "name": "",
          "type": "address"
        }
      ],
      "stateMutability": "view",
      "type": "function"
    },
    {
      "inputs": [],
      "name": "pause",
      "outputs": [],
      "stateMutability": "nonpayable",
      "type": "function"
    },
    {
      "inputs": [],
      "name": "paused",
      "outputs": [
        {
          "internalType": "bool",
          "name": "",
          "type": "bool"
        }
      ],
      "stateMutability": "view",
      "type": "function"
    },
    {
      "inputs": [],
      "name": "renounceOwnership",
      "outputs": [],
      "stateMutability": "nonpayable",
      "type": "function"
    },
    {
      "inputs": [
        {
          "internalType": "address",
          "name": "from",
          "type": "address"
        },
        {
          "internalType": "address",
          "name": "to",
          "type": "address"
        },
        {
          "internalType": "uint256",
          "name": "tokenId",
          "type": "uint256"
        }
      ],
      "name": "safeTransferFrom",
      "outputs": [],
      "stateMutability": "nonpayable",
      "type": "function"
    },
    {
      "inputs": [
        {
          "internalType": "address",
          "name": "from",
          "type": "address"
        },
        {
          "internalType": "address",
          "name": "to",
          "type": "address"
        },
        {
          "internalType": "uint256",
          "name": "tokenId",
          "type": "uint256"
        },
        {
          "internalType": "bytes",
          "name": "data",
          "type": "bytes"
        }
      ],
      "name": "safeTransferFrom",
      "outputs": [],
      "stateMutability": "nonpayable",
      "type": "function"
    },
    {
      "inputs": [
        {
          "internalType": "address",
          "name": "operator",
          "type": "address"
        },
        {
          "internalType": "bool",
          "name": "approved",
          "type": "bool"
        }
      ],
      "name": "setApprovalForAll",
      "outputs": [],
      "stateMutability": "nonpayable",
      "type": "function"
    },
    {
      "inputs": [
        {
          "internalType": "bytes4",
          "name": "interfaceId",
          "type": "bytes4"
        }
      ],
      "name": "supportsInterface",
      "outputs": [
        {
          "internalType": "bool",
          "name": "",
          "type": "bool"
        }
      ],
      "stateMutability": "view",
      "type": "function"
    },
    {
      "inputs": [],
      "name": "symbol",
      "outputs": [
        {
          "internalType": "string",
          "name": "",
          "type": "string"
        }
      ],
      "stateMutability": "view",
      "type": "function"
    },
    {
      "inputs": [
        {
          "internalType": "uint256",
          "name": "index",
          "type": "uint256"
        }
      ],
      "name": "tokenByIndex",
      "outputs": [
        {
          "internalType": "uint256",
          "name": "",
          "type": "uint256"
        }
      ],
      "stateMutability": "view",
      "type": "function"
    },
    {
      "inputs": [
        {
          "internalType": "address",
          "name": "owner",
          "type": "address"
        },
        {
          "internalType": "uint256",
          "name": "index",
          "type": "uint256"
        }
      ],
      "name": "tokenOfOwnerByIndex",
      "outputs": [
        {
          "internalType": "uint256",
          "name": "",
          "type": "uint256"
        }
      ],
      "stateMutability": "view",
      "type": "function"
    },
    {
      "inputs": [
        {
          "internalType": "uint256",
          "name": "tokenId",
          "type": "uint256"
        }
      ],
      "name": "tokenURI",
      "outputs": [
        {
          "internalType": "string",
          "name": "",
          "type": "string"
        }
      ],
      "stateMutability": "view",
      "type": "function"
    },
    {
      "inputs": [],
      "name": "totalSupply",
      "outputs": [
        {
          "internalType": "uint256",
          "name": "",
          "type": "uint256"
        }
      ],
      "stateMutability": "view",
      "type": "function"
    },
    {
      "inputs": [
        {
          "internalType": "address",
          "name": "from",
          "type": "address"
        },
        {
          "internalType": "address",
          "name": "to",
          "type": "address"
        },
        {
          "internalType": "uint256",
          "name": "tokenId",
          "type": "uint256"
        }
      ],
      "name": "transferFrom",
      "outputs": [],
      "stateMutability": "nonpayable",
      "type": "function"
    },
    {
      "inputs": [
        {
          "internalType": "address",
          "name": "newOwner",
          "type": "address"
        }
      ],
      "name": "transferOwnership",
      "outputs": [],
      "stateMutability": "nonpayable",
      "type": "function"
    },
    {
      "inputs": [],
      "name": "unpause",
      "outputs": [],
      "stateMutability": "nonpayable",
      "type": "function"
    }
  ],
  "bytecode": "0x6080604052348015600f57600080fd5b506016601a565b60d7565b600054610100900460ff161560855760405162461bcd60e51b815260206004820152602760248201527f496e697469616c697a61626c653a20636f6e747261637420697320696e697469604482015266616c697a696e6760c81b606482015260840160405180910390fd5b60005460ff9081161460d5576000805460ff191660ff9081179091556040519081527f7f26b83ff96e1f2b6a682f133852f6798a09c465da95921460cefb38474024989060200160405180910390a15b565b612518806100e66000396000f3fe608060405234801561001057600080fd5b50600436106101735760003560e01c80635c975abb116100de57806395d89b4111610097578063c87b56dd11610071578063c87b56dd14610302578063e985e9c514610315578063eacabe1414610351578063f2fde38b1461036457600080fd5b806395d89b41146102d4578063a22cb465146102dc578063b88d4fde146102ef57600080fd5b80635c975abb146102815780636352211e1461028d57806370a08231146102a0578063715018a6146102b35780638456cb59146102bb5780638da5cb5b146102c357600080fd5b80632890e0d7116101305780632890e0d71461021a5780632f745c591461022d5780633f4ba83a1461024057806342842e0e146102485780634cd88b761461025b5780634f6ccce71461026e57600080fd5b806301ffc9a71461017857806306fdde03146101a0578063081812fc146101b5578063095ea7b3146101e057806318160ddd146101f557806323b872dd14610207575b600080fd5b61018b610186366004611e2a565b610377565b60405190151581526020015b60405180910390f35b6101a8610388565b6040516101979190611e97565b6101c86101c3366004611eaa565b61041a565b6040516001600160a01b039091168152602001610197565b6101f36101ee366004611edf565b610441565b005b60cb545b604051908152602001610197565b6101f3610215366004611f09565b61055b565b6101f3610228366004611eaa565b61058c565b6101f961023b366004611edf565b610617565b6101f36106ad565b6101f3610256366004611f09565b6106bf565b6101f3610269366004611ff6565b6106da565b6101f961027c366004611eaa565b610816565b61015f5460ff1661018b565b6101c861029b366004611eaa565b6108a9565b6101f96102ae36600461205f565b610909565b6101f361098f565b6101f36109a1565b60fb546001600160a01b03166101c8565b6101a86109b1565b6101f36102ea36600461207a565b6109c0565b6101f36102fd3660046120b6565b6109cf565b6101a8610310366004611eaa565b610a07565b61018b610323366004612132565b6001600160a01b039182166000908152606a6020908152604080832093909416825291909152205460ff1690565b6101f961035f366004612165565b610a12565b6101f361037236600461205f565b610b07565b600061038282610b7d565b92915050565b6060606580546103979061219d565b80601f01602080910402602001604051908101604052809291908181526020018280546103c39061219d565b80156104105780601f106103e557610100808354040283529160200191610410565b820191906000526020600020905b8154815290600101906020018083116103f357829003601f168201915b5050505050905090565b600061042582610ba2565b506000908152606960205260409020546001600160a01b031690565b600061044c826108a9565b9050806001600160a01b0316836001600160a01b0316036104be5760405162461bcd60e51b815260206004820152602160248201527f4552433732313a20617070726f76616c20746f2063757272656e74206f776e656044820152603960f91b60648201526084015b60405180910390fd5b336001600160a01b03821614806104da57506104da8133610323565b61054c5760405162461bcd60e51b815260206004820152603d60248201527f4552433732313a20617070726f76652063616c6c6572206973206e6f7420746f60448201527f6b656e206f776e6572206f7220617070726f76656420666f7220616c6c00000060648201526084016104b5565b6105568383610c01565b505050565b6105653382610c6f565b6105815760405162461bcd60e51b81526004016104b5906121d7565b610556838383610cee565b610594610e5f565b61059c610eb9565b6105a4610f00565b6000818152606760205260409020546001600160a01b03166106005760405162461bcd60e51b81526020600482015260156024820152742a37b5b2b7103237b2b9903737ba1032bc34b9ba1760591b60448201526064016104b5565b61060981610f5b565b610614600161012d55565b50565b600061062283610909565b82106106845760405162461bcd60e51b815260206004820152602b60248201527f455243373231456e756d657261626c653a206f776e657220696e646578206f7560448201526a74206f6620626f756e647360a81b60648201526084016104b5565b506001600160a01b0391909116600090815260c960209081526040808320938352929052205490565b6106b5610e5f565b6106bd610f6c565b565b610556838383604051806020016040528060008152506109cf565b600054610100900460ff16158080156106fa5750600054600160ff909116105b806107145750303b158015610714575060005460ff166001145b6107775760405162461bcd60e51b815260206004820152602e60248201527f496e697469616c697a61626c653a20636f6e747261637420697320616c72656160448201526d191e481a5b9a5d1a585b1a5e995960921b60648201526084016104b5565b6000805460ff19166001179055801561079a576000805461ff0019166101001790555b6107a48383610fbf565b6107ac610ff0565b6107b4610ff0565b6107bc611017565b6107c4611046565b6107cc611075565b8015610556576000805461ff0019169055604051600181527f7f26b83ff96e1f2b6a682f133852f6798a09c465da95921460cefb38474024989060200160405180910390a1505050565b600061082160cb5490565b82106108845760405162461bcd60e51b815260206004820152602c60248201527f455243373231456e756d657261626c653a20676c6f62616c20696e646578206f60448201526b7574206f6620626f756e647360a01b60648201526084016104b5565b60cb828154811061089757610897612224565b90600052602060002001549050919050565b6000818152606760205260408120546001600160a01b0316806103825760405162461bcd60e51b8152602060048201526018602482015277115490cdcc8c4e881a5b9d985b1a59081d1bdad95b88125160421b60448201526064016104b5565b60006001600160a01b0382166109735760405162461bcd60e51b815260206004820152602960248201527f4552433732313a2061646472657373207a65726f206973206e6f7420612076616044820152683634b21037bbb732b960b91b60648201526084016104b5565b506001600160a01b031660009081526068602052604090205490565b610997610e5f565b6106bd60006110a4565b6109a9610e5f565b6106bd6110f6565b6060606680546103979061219d565b6109cb338383611134565b5050565b6109d93383610c6f565b6109f55760405162461bcd60e51b81526004016104b5906121d7565b610a0184848484611202565b50505050565b606061038282611235565b6000610a1c610e5f565b610a24610eb9565b610a2c610f00565b6000825111610a735760405162461bcd60e51b81526020600482015260136024820152725552492063616e6e6f7420626520656d70747960681b60448201526064016104b5565b6001600160a01b038316610ac95760405162461bcd60e51b815260206004820181905260248201527f526563697069656e742063616e6e6f74206265207a65726f206164647265737360448201526064016104b5565b610ad861019180546001019055565b6000610ae46101915490565b9050610af0848261133d565b610afa81846114d6565b9050610382600161012d55565b610b0f610e5f565b6001600160a01b038116610b745760405162461bcd60e51b815260206004820152602660248201527f4f776e61626c653a206e6577206f776e657220697320746865207a65726f206160448201526564647265737360d01b60648201526084016104b5565b610614816110a4565b60006001600160e01b0319821663780e9d6360e01b14806103825750610382826115a1565b6000818152606760205260409020546001600160a01b03166106145760405162461bcd60e51b8152602060048201526018602482015277115490cdcc8c4e881a5b9d985b1a59081d1bdad95b88125160421b60448201526064016104b5565b600081815260696020526040902080546001600160a01b0319166001600160a01b0384169081179091558190610c36826108a9565b6001600160a01b03167f8c5be1e5ebec7d5bd14f71427d1e84f3dd0314c0f7b2291e5b200ac8c7c3b92560405160405180910390a45050565b600080610c7b836108a9565b9050806001600160a01b0316846001600160a01b03161480610cc257506001600160a01b038082166000908152606a602090815260408083209388168352929052205460ff165b80610ce65750836001600160a01b0316610cdb8461041a565b6001600160a01b0316145b949350505050565b826001600160a01b0316610d01826108a9565b6001600160a01b031614610d275760405162461bcd60e51b81526004016104b59061223a565b6001600160a01b038216610d895760405162461bcd60e51b8152602060048201526024808201527f4552433732313a207472616e7366657220746f20746865207a65726f206164646044820152637265737360e01b60648201526084016104b5565b610d9683838360016115c6565b826001600160a01b0316610da9826108a9565b6001600160a01b031614610dcf5760405162461bcd60e51b81526004016104b59061223a565b600081815260696020908152604080832080546001600160a01b03199081169091556001600160a01b0387811680865260688552838620805460001901905590871680865283862080546001019055868652606790945282852080549092168417909155905184937fddf252ad1be2c89b69c2b068fc378daa952ba7f163c4a11628f55a4df523b3ef91a4505050565b60fb546001600160a01b031633146106bd5760405162461bcd60e51b815260206004820181905260248201527f4f776e61626c653a2063616c6c6572206973206e6f7420746865206f776e657260448201526064016104b5565b61015f5460ff16156106bd5760405162461bcd60e51b815260206004820152601060248201526f14185d5cd8589b194e881c185d5cd95960821b60448201526064016104b5565b600261012d5403610f535760405162461bcd60e51b815260206004820152601f60248201527f5265656e7472616e637947756172643a207265656e7472616e742063616c6c0060448201526064016104b5565b600261012d55565b610614816115da565b600161012d55565b610f7461161a565b61015f805460ff191690557f5db9ee0a495bf2e6ff9c91a7834c1ba4fdd244a5e8aa4e537bd38aeae4b073aa335b6040516001600160a01b03909116815260200160405180910390a1565b600054610100900460ff16610fe65760405162461bcd60e51b81526004016104b59061227f565b6109cb8282611664565b600054610100900460ff166106bd5760405162461bcd60e51b81526004016104b59061227f565b600054610100900460ff1661103e5760405162461bcd60e51b81526004016104b59061227f565b6106bd6116a4565b600054610100900460ff1661106d5760405162461bcd60e51b81526004016104b59061227f565b6106bd6116d4565b600054610100900460ff1661109c5760405162461bcd60e51b81526004016104b59061227f565b6106bd6116fb565b60fb80546001600160a01b038381166001600160a01b0319831681179093556040519116919082907f8be0079c531659141344cd1fd0a4f28419497f9722a3daafe3b4186f6b6457e090600090a35050565b6110fe610eb9565b61015f805460ff191660011790557f62e78cea01bee320cd4e420270b5ea74000d11b0c9f74754ebdbfc544b05a258610fa23390565b816001600160a01b0316836001600160a01b0316036111955760405162461bcd60e51b815260206004820152601960248201527f4552433732313a20617070726f766520746f2063616c6c65720000000000000060448201526064016104b5565b6001600160a01b038381166000818152606a6020908152604080832094871680845294825291829020805460ff191686151590811790915591519182527f17307eab39ab6107e8899845ad3d59bd9653f200f220920489ca2b5937696c31910160405180910390a3505050565b61120d848484610cee565b6112198484848461172f565b610a015760405162461bcd60e51b81526004016104b5906122ca565b606061124082610ba2565b600082815260976020526040812080546112599061219d565b80601f01602080910402602001604051908101604052809291908181526020018280546112859061219d565b80156112d25780601f106112a7576101008083540402835291602001916112d2565b820191906000526020600020905b8154815290600101906020018083116112b557829003601f168201915b5050505050905060006112f060408051602081019091526000815290565b90508051600003611302575092915050565b81511561133457808260405160200161131c92919061231c565b60405160208183030381529060405292505050919050565b610ce684611830565b6001600160a01b0382166113935760405162461bcd60e51b815260206004820181905260248201527f4552433732313a206d696e7420746f20746865207a65726f206164647265737360448201526064016104b5565b6000818152606760205260409020546001600160a01b0316156113f85760405162461bcd60e51b815260206004820152601c60248201527f4552433732313a20746f6b656e20616c7265616479206d696e7465640000000060448201526064016104b5565b6114066000838360016115c6565b6000818152606760205260409020546001600160a01b03161561146b5760405162461bcd60e51b815260206004820152601c60248201527f4552433732313a20746f6b656e20616c7265616479206d696e7465640000000060448201526064016104b5565b6001600160a01b038216600081815260686020908152604080832080546001019055848352606790915280822080546001600160a01b0319168417905551839291907fddf252ad1be2c89b69c2b068fc378daa952ba7f163c4a11628f55a4df523b3ef908290a45050565b6000828152606760205260409020546001600160a01b03166115515760405162461bcd60e51b815260206004820152602e60248201527f45524337323155524953746f726167653a2055524920736574206f66206e6f6e60448201526d32bc34b9ba32b73a103a37b5b2b760911b60648201526084016104b5565b60008281526097602052604090206115698282612392565b506040518281527ff8e1a15aba9398e019f0b49df1a4fde98ee17ae345cb5f6b5e2c27f5033e8ce79060200160405180910390a15050565b60006001600160e01b03198216632483248360e11b14806103825750610382826118a4565b6115ce610eb9565b610a01848484846118f4565b6115e381611a28565b600081815260976020526040902080546115fc9061219d565b15905061061457600081815260976020526040812061061491611dc6565b61015f5460ff166106bd5760405162461bcd60e51b815260206004820152601460248201527314185d5cd8589b194e881b9bdd081c185d5cd95960621b60448201526064016104b5565b600054610100900460ff1661168b5760405162461bcd60e51b81526004016104b59061227f565b60656116978382612392565b5060666105568282612392565b600054610100900460ff166116cb5760405162461bcd60e51b81526004016104b59061227f565b6106bd336110a4565b600054610100900460ff16610f645760405162461bcd60e51b81526004016104b59061227f565b600054610100900460ff166117225760405162461bcd60e51b81526004016104b59061227f565b61015f805460ff19169055565b60006001600160a01b0384163b1561182557604051630a85bd0160e11b81526001600160a01b0385169063150b7a0290611773903390899088908890600401612451565b6020604051808303816000875af19250505080156117ae575060408051601f3d908101601f191682019092526117ab9181019061248e565b60015b61180b573d8080156117dc576040519150601f19603f3d011682016040523d82523d6000602084013e6117e1565b606091505b5080516000036118035760405162461bcd60e51b81526004016104b5906122ca565b805181602001fd5b6001600160e01b031916630a85bd0160e11b149050610ce6565b506001949350505050565b606061183b82610ba2565b600061185260408051602081019091526000815290565b90506000815111611872576040518060200160405280600081525061189d565b8061187c84611acb565b60405160200161188d92919061231c565b6040516020818303038152906040525b9392505050565b60006001600160e01b031982166380ac58cd60e01b14806118d557506001600160e01b03198216635b5e139f60e01b145b8061038257506301ffc9a760e01b6001600160e01b0319831614610382565b60018111156119635760405162461bcd60e51b815260206004820152603560248201527f455243373231456e756d657261626c653a20636f6e7365637574697665207472604482015274185b9cd9995c9cc81b9bdd081cdd5c1c1bdc9d1959605a1b60648201526084016104b5565b816001600160a01b0385166119bf576119ba8160cb8054600083815260cc60205260408120829055600182018355919091527fa7ce836d032b2bf62b7e2097a8e0a6d8aeb35405ad15271e96d3b0188a1d06fb0155565b6119e2565b836001600160a01b0316856001600160a01b0316146119e2576119e28582611b5e565b6001600160a01b0384166119fe576119f981611bfb565b611a21565b846001600160a01b0316846001600160a01b031614611a2157611a218482611caa565b5050505050565b6000611a33826108a9565b9050611a438160008460016115c6565b611a4c826108a9565b600083815260696020908152604080832080546001600160a01b03199081169091556001600160a01b0385168085526068845282852080546000190190558785526067909352818420805490911690555192935084927fddf252ad1be2c89b69c2b068fc378daa952ba7f163c4a11628f55a4df523b3ef908390a45050565b60606000611ad883611cee565b600101905060008167ffffffffffffffff811115611af857611af8611f46565b6040519080825280601f01601f191660200182016040528015611b22576020820181803683370190505b5090508181016020015b600019016f181899199a1a9b1b9c1cb0b131b232b360811b600a86061a8153600a8504945084611b2c57509392505050565b60006001611b6b84610909565b611b7591906124ab565b600083815260ca6020526040902054909150808214611bc8576001600160a01b038416600090815260c960209081526040808320858452825280832054848452818420819055835260ca90915290208190555b50600091825260ca602090815260408084208490556001600160a01b03909416835260c981528383209183525290812055565b60cb54600090611c0d906001906124ab565b600083815260cc602052604081205460cb8054939450909284908110611c3557611c35612224565b906000526020600020015490508060cb8381548110611c5657611c56612224565b600091825260208083209091019290925582815260cc909152604080822084905585825281205560cb805480611c8e57611c8e6124cc565b6001900381819060005260206000200160009055905550505050565b6000611cb583610909565b6001600160a01b03909316600090815260c960209081526040808320868452825280832085905593825260ca9052919091209190915550565b60008072184f03e93ff9f4daa797ed6e38ed64bf6a1f0160401b8310611d2d5772184f03e93ff9f4daa797ed6e38ed64bf6a1f0160401b830492506040015b6d04ee2d6d415b85acef81000000008310611d59576d04ee2d6d415b85acef8100000000830492506020015b662386f26fc100008310611d7757662386f26fc10000830492506010015b6305f5e1008310611d8f576305f5e100830492506008015b6127108310611da357612710830492506004015b60648310611db5576064830492506002015b600a83106103825760010192915050565b508054611dd29061219d565b6000825580601f10611de2575050565b601f01602090049060005260206000209081019061061491905b80821115611e105760008155600101611dfc565b5090565b6001600160e01b03198116811461061457600080fd5b600060208284031215611e3c57600080fd5b813561189d81611e14565b60005b83811015611e62578181015183820152602001611e4a565b50506000910152565b60008151808452611e83816020860160208601611e47565b601f01601f19169290920160200192915050565b60208152600061189d6020830184611e6b565b600060208284031215611ebc57600080fd5b5035919050565b80356001600160a01b0381168114611eda57600080fd5b919050565b60008060408385031215611ef257600080fd5b611efb83611ec3565b946020939093013593505050565b600080600060608486031215611f1e57600080fd5b611f2784611ec3565b9250611f3560208501611ec3565b929592945050506040919091013590565b634e487b7160e01b600052604160045260246000fd5b60008067ffffffffffffffff841115611f7757611f77611f46565b50604051601f19601f85018116603f0116810181811067ffffffffffffffff82111715611fa657611fa6611f46565b604052838152905080828401851015611fbe57600080fd5b83836020830137600060208583010152509392505050565b600082601f830112611fe757600080fd5b61189d83833560208501611f5c565b6000806040838503121561200957600080fd5b823567ffffffffffffffff81111561202057600080fd5b61202c85828601611fd6565b925050602083013567ffffffffffffffff81111561204957600080fd5b61205585828601611fd6565b9150509250929050565b60006020828403121561207157600080fd5b61189d82611ec3565b6000806040838503121561208d57600080fd5b61209683611ec3565b9150602083013580151581146120ab57600080fd5b809150509250929050565b600080600080608085870312156120cc57600080fd5b6120d585611ec3565b93506120e360208601611ec3565b925060408501359150606085013567ffffffffffffffff81111561210657600080fd5b8501601f8101871361211757600080fd5b61212687823560208401611f5c565b91505092959194509250565b6000806040838503121561214557600080fd5b61214e83611ec3565b915061215c60208401611ec3565b90509250929050565b6000806040838503121561217857600080fd5b61218183611ec3565b9150602083013567ffffffffffffffff81111561204957600080fd5b600181811c908216806121b157607f821691505b6020821081036121d157634e487b7160e01b600052602260045260246000fd5b50919050565b6020808252602d908201527f4552433732313a2063616c6c6572206973206e6f7420746f6b656e206f776e6560408201526c1c881bdc88185c1c1c9bdd9959609a1b606082015260800190565b634e487b7160e01b600052603260045260246000fd5b60208082526025908201527f4552433732313a207472616e736665722066726f6d20696e636f72726563742060408201526437bbb732b960d91b606082015260800190565b6020808252602b908201527f496e697469616c697a61626c653a20636f6e7472616374206973206e6f74206960408201526a6e697469616c697a696e6760a81b606082015260800190565b60208082526032908201527f4552433732313a207472616e7366657220746f206e6f6e20455243373231526560408201527131b2b4bb32b91034b6b83632b6b2b73a32b960711b606082015260800190565b6000835161232e818460208801611e47565b835190830190612342818360208801611e47565b01949350505050565b601f82111561055657806000526020600020601f840160051c810160208510156123725750805b601f840160051c820191505b81811015611a21576000815560010161237e565b815167ffffffffffffffff8111156123ac576123ac611f46565b6123c0816123ba845461219d565b8461234b565b6020601f8211600181146123f457600083156123dc5750848201515b600019600385901b1c1916600184901b178455611a21565b600084815260208120601f198516915b828110156124245787850151825560209485019460019092019101612404565b50848210156124425786840151600019600387901b60f8161c191681555b50505050600190811b01905550565b6001600160a01b038581168252841660208201526040810183905260806060820181905260009061248490830184611e6b565b9695505050505050565b6000602082840312156124a057600080fd5b815161189d81611e14565b8181038181111561038257634e487b7160e01b600052601160045260246000fd5b634e487b7160e01b600052603160045260246000fdfea26469706673582212207613cb25e99a4555a3b5d051e09ba3360b9183fefc0d536e2f888b8e63becdb764736f6c634300081a0033",
  "linkReferences": {},
  "deployedLinkReferences": {}
}