{
  "_format": "hh-sol-artifact-1",
  "contractName": "MyNFT",
  "sourceName": "contracts/NFT.sol",
  "abi": [
    {
      "inputs": [
        {
          "internalType": "string",
          "name": "name",
          "type": "string"
        },
        {
          "internalType": "string",
          "name": "symbol",
          "type": "string"
        }
      ],
      "stateMutability": "nonpayable",
      "type": "constructor"
    },
    {
      "anonymous": false,
      "inputs": [
        {
          "indexed": true,
          "internalType": "address",
          "name": "owner",
          "type": "address"
        },
        {
          "indexed": true,
          "internalType": "address",
          "name": "approved",
          "type": "address"
        },
        {
          "indexed": true,
          "internalType": "uint256",
          "name": "tokenId",
          "type": "uint256"
        }
      ],
      "name": "Approval",
      "type": "event"
    },
    {
      "anonymous": false,
      "inputs": [
        {
          "indexed": true,
          "internalType": "address",
          "name": "owner",
          "type": "address"
        },
        {
          "indexed": true,
          "internalType": "address",
          "name": "operator",
          "type": "address"
        },
        {
          "indexed": false,
          "internalType": "bool",
          "name": "approved",
          "type": "bool"
        }
      ],
      "name": "ApprovalForAll",
      "type": "event"
    },
    {
      "anonymous": false,
      "inputs": [
        {
          "indexed": false,
          "internalType": "uint256",
          "name": "_fromTokenId",
          "type": "uint256"
        },
        {
          "indexed": false,
          "internalType": "uint256",
          "name": "_toTokenId",
          "type": "uint256"
        }
      ],
      "name": "BatchMetadataUpdate",
      "type": "event"
    },
    {
      "anonymous": false,
      "inputs": [
        {
          "indexed": false,
          "internalType": "uint256",
          "name": "_tokenId",
          "type": "uint256"
        }
      ],
      "name": "MetadataUpdate",
      "type": "event"
    },
    {
      "anonymous": false,
      "inputs": [
        {
          "indexed": true,
          "internalType": "address",
          "name": "previousOwner",
          "type": "address"
        },
        {
          "indexed": true,
          "internalType": "address",
          "name": "newOwner",
          "type": "address"
        }
      ],
      "name": "OwnershipTransferred",
      "type": "event"
    },
    {
      "anonymous": false,
      "inputs": [
        {
          "indexed": true,
          "internalType": "address",
          "name": "from",
          "type": "address"
        },
        {
          "indexed": true,
          "internalType": "address",
          "name": "to",
          "type": "address"
        },
        {
          "indexed": true,
          "internalType": "uint256",
          "name": "tokenId",
          "type": "uint256"
        }
      ],
      "name": "Transfer",
      "type": "event"
    },
    {
      "inputs": [
        {
          "internalType": "address",
          "name": "to",
          "type": "address"
        },
        {
          "internalType": "uint256",
          "name": "tokenId",
          "type": "uint256"
        }
      ],
      "name": "approve",
      "outputs": [],
      "stateMutability": "nonpayable",
      "type": "function"
    },
    {
      "inputs": [
        {
          "internalType": "address",
          "name": "owner",
          "type": "address"
        }
      ],
      "name": "balanceOf",
      "outputs": [
        {
          "internalType": "uint256",
          "name": "",
          "type": "uint256"
        }
      ],
      "stateMutability": "view",
      "type": "function"
    },
    {
      "inputs": [
        {
          "internalType": "uint256",
          "name": "tokenId",
          "type": "uint256"
        }
      ],
      "name": "burnNFT",
      "outputs": [],
      "stateMutability": "nonpayable",
      "type": "function"
    },
    {
      "inputs": [
        {
          "internalType": "uint256",
          "name": "tokenId",
          "type": "uint256"
        }
      ],
      "name": "getApproved",
      "outputs": [
        {
          "internalType": "address",
          "name": "",
          "type": "address"
        }
      ],
      "stateMutability": "view",
      "type": "function"
    },
    {
      "inputs": [
        {
          "internalType": "address",
          "name": "owner",
          "type": "address"
        },
        {
          "internalType": "address",
          "name": "operator",
          "type": "address"
        }
      ],
      "name": "isApprovedForAll",
      "outputs": [
        {
          "internalType": "bool",
          "name": "",
          "type": "bool"
        }
      ],
      "stateMutability": "view",
      "type": "function"
    },
    {
      "inputs": [
        {
          "internalType": "address",
          "name": "recipient",
          "type": "address"
        },
        {
          "internalType": "string",
          "name": "uri",
          "type": "string"
        }
      ],
      "name": "mintNFT",
      "outputs": [
        {
          "internalType": "uint256",
          "name": "",
          "type": "uint256"
        }
      ],
      "stateMutability": "nonpayable",
      "type": "function"
    },
    {
      "inputs": [],
      "name": "name",
      "outputs": [
        {
          "internalType": "string",
          "name": "",
          "type": "string"
        }
      ],
      "stateMutability": "view",
      "type": "function"
    },
    {
      "inputs": [],
      "name": "owner",
      "outputs": [
        {
          "internalType": "address",
          "name": "",
          "type": "address"
        }
      ],
      "stateMutability": "view",
      "type": "function"
    },
    {
      "inputs": [
        {
          "internalType": "uint256",
          "name": "tokenId",
          "type": "uint256"
        }
      ],
      "name": "ownerOf",
      "outputs": [
        {
          "internalType": "address",
          "name": "",
          "type": "address"
        }
      ],
      "stateMutability": "view",
      "type": "function"
    },
    {
      "inputs": [],
      "name": "renounceOwnership",
      "outputs": [],
      "stateMutability": "nonpayable",
      "type": "function"
    },
    {
      "inputs": [
        {
          "internalType": "address",
          "name": "from",
          "type": "address"
        },
        {
          "internalType": "address",
          "name": "to",
          "type": "address"
        },
        {
          "internalType": "uint256",
          "name": "tokenId",
          "type": "uint256"
        }
      ],
      "name": "safeTransferFrom",
      "outputs": [],
      "stateMutability": "nonpayable",
      "type": "function"
    },
    {
      "inputs": [
        {
          "internalType": "address",
          "name": "from",
          "type": "address"
        },
        {
          "internalType": "address",
          "name": "to",
          "type": "address"
        },
        {
          "internalType": "uint256",
          "name": "tokenId",
          "type": "uint256"
        },
        {
          "internalType": "bytes",
          "name": "data",
          "type": "bytes"
        }
      ],
      "name": "safeTransferFrom",
      "outputs": [],
      "stateMutability": "nonpayable",
      "type": "function"
    },
    {
      "inputs": [
        {
          "internalType": "address",
          "name": "operator",
          "type": "address"
        },
        {
          "internalType": "bool",
          "name": "approved",
          "type": "bool"
        }
      ],
      "name": "setApprovalForAll",
      "outputs": [],
      "stateMutability": "nonpayable",
      "type": "function"
    },
    {
      "inputs": [
        {
          "internalType": "bytes4",
          "name": "interfaceId",
          "type": "bytes4"
        }
      ],
      "name": "supportsInterface",
      "outputs": [
        {
          "internalType": "bool",
          "name": "",
          "type": "bool"
        }
      ],
      "stateMutability": "view",
      "type": "function"
    },
    {
      "inputs": [],
      "name": "symbol",
      "outputs": [
        {
          "internalType": "string",
          "name": "",
          "type": "string"
        }
      ],
      "stateMutability": "view",
      "type": "function"
    },
    {
      "inputs": [
        {
          "internalType": "uint256",
          "name": "index",
          "type": "uint256"
        }
      ],
      "name": "tokenByIndex",
      "outputs": [
        {
          "internalType": "uint256",
          "name": "",
          "type": "uint256"
        }
      ],
      "stateMutability": "view",
      "type": "function"
    },
    {
      "inputs": [
        {
          "internalType": "address",
          "name": "owner",
          "type": "address"
        },
        {
          "internalType": "uint256",
          "name": "index",
          "type": "uint256"
        }
      ],
      "name": "tokenOfOwnerByIndex",
      "outputs": [
        {
          "internalType": "uint256",
          "name": "",
          "type": "uint256"
        }
      ],
      "stateMutability": "view",
      "type": "function"
    },
    {
      "inputs": [
        {
          "internalType": "uint256",
          "name": "tokenId",
          "type": "uint256"
        }
      ],
      "name": "tokenURI",
      "outputs": [
        {
          "internalType": "string",
          "name": "",
          "type": "string"
        }
      ],
      "stateMutability": "view",
      "type": "function"
    },
    {
      "inputs": [],
      "name": "totalSupply",
      "outputs": [
        {
          "internalType": "uint256",
          "name": "",
          "type": "uint256"
        }
      ],
      "stateMutability": "view",
      "type": "function"
    },
    {
      "inputs": [
        {
          "internalType": "address",
          "name": "from",
          "type": "address"
        },
        {
          "internalType": "address",
          "name": "to",
          "type": "address"
        },
        {
          "internalType": "uint256",
          "name": "tokenId",
          "type": "uint256"
        }
      ],
      "name": "transferFrom",
      "outputs": [],
      "stateMutability": "nonpayable",
      "type": "function"
    },
    {
      "inputs": [
        {
          "internalType": "address",
          "name": "newOwner",
          "type": "address"
        }
      ],
      "name": "transferOwnership",
      "outputs": [],
      "stateMutability": "nonpayable",
      "type": "function"
    }
  ],
  "bytecode": "0x608060405234801561001057600080fd5b506040516121d13803806121d183398101604081905261002f91610179565b8181600061003d838261026b565b50600161004a828261026b565b50505061006361005e61006a60201b60201c565b61006e565b5050610329565b3390565b600b80546001600160a01b038381166001600160a01b0319831681179093556040519116919082907f8be0079c531659141344cd1fd0a4f28419497f9722a3daafe3b4186f6b6457e090600090a35050565b634e487b7160e01b600052604160045260246000fd5b600082601f8301126100e757600080fd5b81516001600160401b03811115610100576101006100c0565b604051601f8201601f19908116603f011681016001600160401b038111828210171561012e5761012e6100c0565b60405281815283820160200185101561014657600080fd5b60005b8281101561016557602081860181015183830182015201610149565b506000918101602001919091529392505050565b6000806040838503121561018c57600080fd5b82516001600160401b038111156101a257600080fd5b6101ae858286016100d6565b602085015190935090506001600160401b038111156101cc57600080fd5b6101d8858286016100d6565b9150509250929050565b600181811c908216806101f657607f821691505b60208210810361021657634e487b7160e01b600052602260045260246000fd5b50919050565b601f82111561026657806000526020600020601f840160051c810160208510156102435750805b601f840160051c820191505b81811015610263576000815560010161024f565b50505b505050565b81516001600160401b03811115610284576102846100c0565b6102988161029284546101e2565b8461021c565b6020601f8211600181146102cc57600083156102b45750848201515b600019600385901b1c1916600184901b178455610263565b600084815260208120601f198516915b828110156102fc57878501518255602094850194600190920191016102dc565b508482101561031a5786840151600019600387901b60f8161c191681555b50505050600190811b01905550565b611e99806103386000396000f3fe608060405234801561001057600080fd5b50600436106101375760003560e01c80636352211e116100b8578063a22cb4651161007c578063a22cb46514610271578063b88d4fde14610284578063c87b56dd14610297578063e985e9c5146102aa578063eacabe14146102e6578063f2fde38b146102f957600080fd5b80636352211e1461022a57806370a082311461023d578063715018a6146102505780638da5cb5b1461025857806395d89b411461026957600080fd5b806323b872dd116100ff57806323b872dd146101cb5780632890e0d7146101de5780632f745c59146101f157806342842e0e146102045780634f6ccce71461021757600080fd5b806301ffc9a71461013c57806306fdde0314610164578063081812fc14610179578063095ea7b3146101a457806318160ddd146101b9575b600080fd5b61014f61014a366004611855565b61030c565b60405190151581526020015b60405180910390f35b61016c61031d565b60405161015b91906118c2565b61018c6101873660046118d5565b6103af565b6040516001600160a01b03909116815260200161015b565b6101b76101b236600461190a565b6103d6565b005b6009545b60405190815260200161015b565b6101b76101d9366004611934565b6104f0565b6101b76101ec3660046118d5565b610521565b6101bd6101ff36600461190a565b610591565b6101b7610212366004611934565b610627565b6101bd6102253660046118d5565b610642565b61018c6102383660046118d5565b6106d5565b6101bd61024b366004611971565b610735565b6101b76107bb565b600b546001600160a01b031661018c565b61016c6107cf565b6101b761027f36600461198c565b6107de565b6101b7610292366004611a58565b6107ed565b61016c6102a53660046118d5565b610825565b61014f6102b8366004611ad4565b6001600160a01b03918216600090815260056020908152604080832093909416825291909152205460ff1690565b6101bd6102f4366004611b07565b610830565b6101b7610307366004611971565b610870565b6000610317826108e6565b92915050565b60606000805461032c90611b69565b80601f016020809104026020016040519081016040528092919081815260200182805461035890611b69565b80156103a55780601f1061037a576101008083540402835291602001916103a5565b820191906000526020600020905b81548152906001019060200180831161038857829003601f168201915b5050505050905090565b60006103ba8261090b565b506000908152600460205260409020546001600160a01b031690565b60006103e1826106d5565b9050806001600160a01b0316836001600160a01b0316036104535760405162461bcd60e51b815260206004820152602160248201527f4552433732313a20617070726f76616c20746f2063757272656e74206f776e656044820152603960f91b60648201526084015b60405180910390fd5b336001600160a01b038216148061046f575061046f81336102b8565b6104e15760405162461bcd60e51b815260206004820152603d60248201527f4552433732313a20617070726f76652063616c6c6572206973206e6f7420746f60448201527f6b656e206f776e6572206f7220617070726f76656420666f7220616c6c000000606482015260840161044a565b6104eb838361096a565b505050565b6104fa33826109d8565b6105165760405162461bcd60e51b815260040161044a90611ba3565b6104eb838383610a57565b610529610bc8565b6000818152600260205260409020546001600160a01b03166105855760405162461bcd60e51b81526020600482015260156024820152742a37b5b2b7103237b2b9903737ba1032bc34b9ba1760591b604482015260640161044a565b61058e81610c22565b50565b600061059c83610735565b82106105fe5760405162461bcd60e51b815260206004820152602b60248201527f455243373231456e756d657261626c653a206f776e657220696e646578206f7560448201526a74206f6620626f756e647360a81b606482015260840161044a565b506001600160a01b03919091166000908152600760209081526040808320938352929052205490565b6104eb838383604051806020016040528060008152506107ed565b600061064d60095490565b82106106b05760405162461bcd60e51b815260206004820152602c60248201527f455243373231456e756d657261626c653a20676c6f62616c20696e646578206f60448201526b7574206f6620626f756e647360a01b606482015260840161044a565b600982815481106106c3576106c3611bf0565b90600052602060002001549050919050565b6000818152600260205260408120546001600160a01b0316806103175760405162461bcd60e51b8152602060048201526018602482015277115490cdcc8c4e881a5b9d985b1a59081d1bdad95b88125160421b604482015260640161044a565b60006001600160a01b03821661079f5760405162461bcd60e51b815260206004820152602960248201527f4552433732313a2061646472657373207a65726f206973206e6f7420612076616044820152683634b21037bbb732b960b91b606482015260840161044a565b506001600160a01b031660009081526003602052604090205490565b6107c3610bc8565b6107cd6000610c2b565b565b60606001805461032c90611b69565b6107e9338383610c7d565b5050565b6107f733836109d8565b6108135760405162461bcd60e51b815260040161044a90611ba3565b61081f84848484610d4b565b50505050565b606061031782610d7e565b600061083a610bc8565b610848600c80546001019055565b6000610853600c5490565b905061085f8482610e86565b610869818461101f565b9392505050565b610878610bc8565b6001600160a01b0381166108dd5760405162461bcd60e51b815260206004820152602660248201527f4f776e61626c653a206e6577206f776e657220697320746865207a65726f206160448201526564647265737360d01b606482015260840161044a565b61058e81610c2b565b60006001600160e01b0319821663780e9d6360e01b14806103175750610317826110ea565b6000818152600260205260409020546001600160a01b031661058e5760405162461bcd60e51b8152602060048201526018602482015277115490cdcc8c4e881a5b9d985b1a59081d1bdad95b88125160421b604482015260640161044a565b600081815260046020526040902080546001600160a01b0319166001600160a01b038416908117909155819061099f826106d5565b6001600160a01b03167f8c5be1e5ebec7d5bd14f71427d1e84f3dd0314c0f7b2291e5b200ac8c7c3b92560405160405180910390a45050565b6000806109e4836106d5565b9050806001600160a01b0316846001600160a01b03161480610a2b57506001600160a01b0380821660009081526005602090815260408083209388168352929052205460ff165b80610a4f5750836001600160a01b0316610a44846103af565b6001600160a01b0316145b949350505050565b826001600160a01b0316610a6a826106d5565b6001600160a01b031614610a905760405162461bcd60e51b815260040161044a90611c06565b6001600160a01b038216610af25760405162461bcd60e51b8152602060048201526024808201527f4552433732313a207472616e7366657220746f20746865207a65726f206164646044820152637265737360e01b606482015260840161044a565b610aff838383600161110f565b826001600160a01b0316610b12826106d5565b6001600160a01b031614610b385760405162461bcd60e51b815260040161044a90611c06565b600081815260046020908152604080832080546001600160a01b03199081169091556001600160a01b0387811680865260038552838620805460001901905590871680865283862080546001019055868652600290945282852080549092168417909155905184937fddf252ad1be2c89b69c2b068fc378daa952ba7f163c4a11628f55a4df523b3ef91a4505050565b600b546001600160a01b031633146107cd5760405162461bcd60e51b815260206004820181905260248201527f4f776e61626c653a2063616c6c6572206973206e6f7420746865206f776e6572604482015260640161044a565b61058e8161111b565b600b80546001600160a01b038381166001600160a01b0319831681179093556040519116919082907f8be0079c531659141344cd1fd0a4f28419497f9722a3daafe3b4186f6b6457e090600090a35050565b816001600160a01b0316836001600160a01b031603610cde5760405162461bcd60e51b815260206004820152601960248201527f4552433732313a20617070726f766520746f2063616c6c657200000000000000604482015260640161044a565b6001600160a01b03838116600081815260056020908152604080832094871680845294825291829020805460ff191686151590811790915591519182527f17307eab39ab6107e8899845ad3d59bd9653f200f220920489ca2b5937696c31910160405180910390a3505050565b610d56848484610a57565b610d628484848461115b565b61081f5760405162461bcd60e51b815260040161044a90611c4b565b6060610d898261090b565b60008281526006602052604081208054610da290611b69565b80601f0160208091040260200160405190810160405280929190818152602001828054610dce90611b69565b8015610e1b5780601f10610df057610100808354040283529160200191610e1b565b820191906000526020600020905b815481529060010190602001808311610dfe57829003601f168201915b505050505090506000610e3960408051602081019091526000815290565b90508051600003610e4b575092915050565b815115610e7d578082604051602001610e65929190611c9d565b60405160208183030381529060405292505050919050565b610a4f8461125c565b6001600160a01b038216610edc5760405162461bcd60e51b815260206004820181905260248201527f4552433732313a206d696e7420746f20746865207a65726f2061646472657373604482015260640161044a565b6000818152600260205260409020546001600160a01b031615610f415760405162461bcd60e51b815260206004820152601c60248201527f4552433732313a20746f6b656e20616c7265616479206d696e74656400000000604482015260640161044a565b610f4f60008383600161110f565b6000818152600260205260409020546001600160a01b031615610fb45760405162461bcd60e51b815260206004820152601c60248201527f4552433732313a20746f6b656e20616c7265616479206d696e74656400000000604482015260640161044a565b6001600160a01b038216600081815260036020908152604080832080546001019055848352600290915280822080546001600160a01b0319168417905551839291907fddf252ad1be2c89b69c2b068fc378daa952ba7f163c4a11628f55a4df523b3ef908290a45050565b6000828152600260205260409020546001600160a01b031661109a5760405162461bcd60e51b815260206004820152602e60248201527f45524337323155524953746f726167653a2055524920736574206f66206e6f6e60448201526d32bc34b9ba32b73a103a37b5b2b760911b606482015260840161044a565b60008281526006602052604090206110b28282611d13565b506040518281527ff8e1a15aba9398e019f0b49df1a4fde98ee17ae345cb5f6b5e2c27f5033e8ce79060200160405180910390a15050565b60006001600160e01b03198216632483248360e11b14806103175750610317826112cf565b61081f8484848461131f565b61112481611453565b6000818152600660205260409020805461113d90611b69565b15905061058e57600081815260066020526040812061058e916117f1565b60006001600160a01b0384163b1561125157604051630a85bd0160e11b81526001600160a01b0385169063150b7a029061119f903390899088908890600401611dd2565b6020604051808303816000875af19250505080156111da575060408051601f3d908101601f191682019092526111d791810190611e0f565b60015b611237573d808015611208576040519150601f19603f3d011682016040523d82523d6000602084013e61120d565b606091505b50805160000361122f5760405162461bcd60e51b815260040161044a90611c4b565b805181602001fd5b6001600160e01b031916630a85bd0160e11b149050610a4f565b506001949350505050565b60606112678261090b565b600061127e60408051602081019091526000815290565b9050600081511161129e5760405180602001604052806000815250610869565b806112a8846114f6565b6040516020016112b9929190611c9d565b6040516020818303038152906040529392505050565b60006001600160e01b031982166380ac58cd60e01b148061130057506001600160e01b03198216635b5e139f60e01b145b8061031757506301ffc9a760e01b6001600160e01b0319831614610317565b600181111561138e5760405162461bcd60e51b815260206004820152603560248201527f455243373231456e756d657261626c653a20636f6e7365637574697665207472604482015274185b9cd9995c9cc81b9bdd081cdd5c1c1bdc9d1959605a1b606482015260840161044a565b816001600160a01b0385166113ea576113e581600980546000838152600a60205260408120829055600182018355919091527f6e1540171b6c0c960b71a7020d9f60077f6af931a8bbf590da0223dacf75c7af0155565b61140d565b836001600160a01b0316856001600160a01b03161461140d5761140d8582611589565b6001600160a01b0384166114295761142481611626565b61144c565b846001600160a01b0316846001600160a01b03161461144c5761144c84826116d5565b5050505050565b600061145e826106d5565b905061146e81600084600161110f565b611477826106d5565b600083815260046020908152604080832080546001600160a01b03199081169091556001600160a01b0385168085526003845282852080546000190190558785526002909352818420805490911690555192935084927fddf252ad1be2c89b69c2b068fc378daa952ba7f163c4a11628f55a4df523b3ef908390a45050565b6060600061150383611719565b600101905060008167ffffffffffffffff811115611523576115236119c8565b6040519080825280601f01601f19166020018201604052801561154d576020820181803683370190505b5090508181016020015b600019016f181899199a1a9b1b9c1cb0b131b232b360811b600a86061a8153600a850494508461155757509392505050565b6000600161159684610735565b6115a09190611e2c565b6000838152600860205260409020549091508082146115f3576001600160a01b03841660009081526007602090815260408083208584528252808320548484528184208190558352600890915290208190555b5060009182526008602090815260408084208490556001600160a01b039094168352600781528383209183525290812055565b60095460009061163890600190611e2c565b6000838152600a60205260408120546009805493945090928490811061166057611660611bf0565b90600052602060002001549050806009838154811061168157611681611bf0565b6000918252602080832090910192909255828152600a909152604080822084905585825281205560098054806116b9576116b9611e4d565b6001900381819060005260206000200160009055905550505050565b60006116e083610735565b6001600160a01b039093166000908152600760209081526040808320868452825280832085905593825260089052919091209190915550565b60008072184f03e93ff9f4daa797ed6e38ed64bf6a1f0160401b83106117585772184f03e93ff9f4daa797ed6e38ed64bf6a1f0160401b830492506040015b6d04ee2d6d415b85acef81000000008310611784576d04ee2d6d415b85acef8100000000830492506020015b662386f26fc1000083106117a257662386f26fc10000830492506010015b6305f5e10083106117ba576305f5e100830492506008015b61271083106117ce57612710830492506004015b606483106117e0576064830492506002015b600a83106103175760010192915050565b5080546117fd90611b69565b6000825580601f1061180d575050565b601f01602090049060005260206000209081019061058e91905b8082111561183b5760008155600101611827565b5090565b6001600160e01b03198116811461058e57600080fd5b60006020828403121561186757600080fd5b81356108698161183f565b60005b8381101561188d578181015183820152602001611875565b50506000910152565b600081518084526118ae816020860160208601611872565b601f01601f19169290920160200192915050565b6020815260006108696020830184611896565b6000602082840312156118e757600080fd5b5035919050565b80356001600160a01b038116811461190557600080fd5b919050565b6000806040838503121561191d57600080fd5b611926836118ee565b946020939093013593505050565b60008060006060848603121561194957600080fd5b611952846118ee565b9250611960602085016118ee565b929592945050506040919091013590565b60006020828403121561198357600080fd5b610869826118ee565b6000806040838503121561199f57600080fd5b6119a8836118ee565b9150602083013580151581146119bd57600080fd5b809150509250929050565b634e487b7160e01b600052604160045260246000fd5b60008067ffffffffffffffff8411156119f9576119f96119c8565b50604051601f19601f85018116603f0116810181811067ffffffffffffffff82111715611a2857611a286119c8565b604052838152905080828401851015611a4057600080fd5b83836020830137600060208583010152509392505050565b60008060008060808587031215611a6e57600080fd5b611a77856118ee565b9350611a85602086016118ee565b925060408501359150606085013567ffffffffffffffff811115611aa857600080fd5b8501601f81018713611ab957600080fd5b611ac8878235602084016119de565b91505092959194509250565b60008060408385031215611ae757600080fd5b611af0836118ee565b9150611afe602084016118ee565b90509250929050565b60008060408385031215611b1a57600080fd5b611b23836118ee565b9150602083013567ffffffffffffffff811115611b3f57600080fd5b8301601f81018513611b5057600080fd5b611b5f858235602084016119de565b9150509250929050565b600181811c90821680611b7d57607f821691505b602082108103611b9d57634e487b7160e01b600052602260045260246000fd5b50919050565b6020808252602d908201527f4552433732313a2063616c6c6572206973206e6f7420746f6b656e206f776e6560408201526c1c881bdc88185c1c1c9bdd9959609a1b606082015260800190565b634e487b7160e01b600052603260045260246000fd5b60208082526025908201527f4552433732313a207472616e736665722066726f6d20696e636f72726563742060408201526437bbb732b960d91b606082015260800190565b60208082526032908201527f4552433732313a207472616e7366657220746f206e6f6e20455243373231526560408201527131b2b4bb32b91034b6b83632b6b2b73a32b960711b606082015260800190565b60008351611caf818460208801611872565b835190830190611cc3818360208801611872565b01949350505050565b601f8211156104eb57806000526020600020601f840160051c81016020851015611cf35750805b601f840160051c820191505b8181101561144c5760008155600101611cff565b815167ffffffffffffffff811115611d2d57611d2d6119c8565b611d4181611d3b8454611b69565b84611ccc565b6020601f821160018114611d755760008315611d5d5750848201515b600019600385901b1c1916600184901b17845561144c565b600084815260208120601f198516915b82811015611da55787850151825560209485019460019092019101611d85565b5084821015611dc35786840151600019600387901b60f8161c191681555b50505050600190811b01905550565b6001600160a01b0385811682528416602082015260408101839052608060608201819052600090611e0590830184611896565b9695505050505050565b600060208284031215611e2157600080fd5b81516108698161183f565b8181038181111561031757634e487b7160e01b600052601160045260246000fd5b634e487b7160e01b600052603160045260246000fdfea26469706673582212200c1a80d884e51f28636837057e329771d466b9d6af18bb6277e0923d4c1fba1664736f6c634300081a0033",
  "linkReferences": {},
  "deployedLinkReferences": {}
}