{
  "_format": "hh-sol-artifact-1",
  "contractName": "MyNFT",
  "sourceName": "contracts/NFT.sol",
  "abi": [
    {
      "inputs": [
        {
          "internalType": "string",
          "name": "name",
          "type": "string"
        },
        {
          "internalType": "string",
          "name": "symbol",
          "type": "string"
        }
      ],
      "stateMutability": "nonpayable",
      "type": "constructor"
    },
    {
      "anonymous": false,
      "inputs": [
        {
          "indexed": true,
          "internalType": "address",
          "name": "owner",
          "type": "address"
        },
        {
          "indexed": true,
          "internalType": "address",
          "name": "approved",
          "type": "address"
        },
        {
          "indexed": true,
          "internalType": "uint256",
          "name": "tokenId",
          "type": "uint256"
        }
      ],
      "name": "Approval",
      "type": "event"
    },
    {
      "anonymous": false,
      "inputs": [
        {
          "indexed": true,
          "internalType": "address",
          "name": "owner",
          "type": "address"
        },
        {
          "indexed": true,
          "internalType": "address",
          "name": "operator",
          "type": "address"
        },
        {
          "indexed": false,
          "internalType": "bool",
          "name": "approved",
          "type": "bool"
        }
      ],
      "name": "ApprovalForAll",
      "type": "event"
    },
    {
      "anonymous": false,
      "inputs": [
        {
          "indexed": false,
          "internalType": "uint256",
          "name": "_fromTokenId",
          "type": "uint256"
        },
        {
          "indexed": false,
          "internalType": "uint256",
          "name": "_toTokenId",
          "type": "uint256"
        }
      ],
      "name": "BatchMetadataUpdate",
      "type": "event"
    },
    {
      "anonymous": false,
      "inputs": [
        {
          "indexed": false,
          "internalType": "uint256",
          "name": "_tokenId",
          "type": "uint256"
        }
      ],
      "name": "MetadataUpdate",
      "type": "event"
    },
    {
      "anonymous": false,
      "inputs": [
        {
          "indexed": true,
          "internalType": "address",
          "name": "previousOwner",
          "type": "address"
        },
        {
          "indexed": true,
          "internalType": "address",
          "name": "newOwner",
          "type": "address"
        }
      ],
      "name": "OwnershipTransferred",
      "type": "event"
    },
    {
      "anonymous": false,
      "inputs": [
        {
          "indexed": true,
          "internalType": "address",
          "name": "from",
          "type": "address"
        },
        {
          "indexed": true,
          "internalType": "address",
          "name": "to",
          "type": "address"
        },
        {
          "indexed": true,
          "internalType": "uint256",
          "name": "tokenId",
          "type": "uint256"
        }
      ],
      "name": "Transfer",
      "type": "event"
    },
    {
      "inputs": [
        {
          "internalType": "address",
          "name": "to",
          "type": "address"
        },
        {
          "internalType": "uint256",
          "name": "tokenId",
          "type": "uint256"
        }
      ],
      "name": "approve",
      "outputs": [],
      "stateMutability": "nonpayable",
      "type": "function"
    },
    {
      "inputs": [
        {
          "internalType": "address",
          "name": "owner",
          "type": "address"
        }
      ],
      "name": "balanceOf",
      "outputs": [
        {
          "internalType": "uint256",
          "name": "",
          "type": "uint256"
        }
      ],
      "stateMutability": "view",
      "type": "function"
    },
    {
      "inputs": [
        {
          "internalType": "uint256",
          "name": "tokenId",
          "type": "uint256"
        }
      ],
      "name": "getApproved",
      "outputs": [
        {
          "internalType": "address",
          "name": "",
          "type": "address"
        }
      ],
      "stateMutability": "view",
      "type": "function"
    },
    {
      "inputs": [
        {
          "internalType": "address",
          "name": "owner",
          "type": "address"
        },
        {
          "internalType": "address",
          "name": "operator",
          "type": "address"
        }
      ],
      "name": "isApprovedForAll",
      "outputs": [
        {
          "internalType": "bool",
          "name": "",
          "type": "bool"
        }
      ],
      "stateMutability": "view",
      "type": "function"
    },
    {
      "inputs": [
        {
          "internalType": "address",
          "name": "recipient",
          "type": "address"
        },
        {
          "internalType": "string",
          "name": "tokenURI",
          "type": "string"
        }
      ],
      "name": "mintNFT",
      "outputs": [
        {
          "internalType": "uint256",
          "name": "",
          "type": "uint256"
        }
      ],
      "stateMutability": "nonpayable",
      "type": "function"
    },
    {
      "inputs": [],
      "name": "name",
      "outputs": [
        {
          "internalType": "string",
          "name": "",
          "type": "string"
        }
      ],
      "stateMutability": "view",
      "type": "function"
    },
    {
      "inputs": [],
      "name": "owner",
      "outputs": [
        {
          "internalType": "address",
          "name": "",
          "type": "address"
        }
      ],
      "stateMutability": "view",
      "type": "function"
    },
    {
      "inputs": [
        {
          "internalType": "uint256",
          "name": "tokenId",
          "type": "uint256"
        }
      ],
      "name": "ownerOf",
      "outputs": [
        {
          "internalType": "address",
          "name": "",
          "type": "address"
        }
      ],
      "stateMutability": "view",
      "type": "function"
    },
    {
      "inputs": [],
      "name": "renounceOwnership",
      "outputs": [],
      "stateMutability": "nonpayable",
      "type": "function"
    },
    {
      "inputs": [
        {
          "internalType": "address",
          "name": "from",
          "type": "address"
        },
        {
          "internalType": "address",
          "name": "to",
          "type": "address"
        },
        {
          "internalType": "uint256",
          "name": "tokenId",
          "type": "uint256"
        }
      ],
      "name": "safeTransferFrom",
      "outputs": [],
      "stateMutability": "nonpayable",
      "type": "function"
    },
    {
      "inputs": [
        {
          "internalType": "address",
          "name": "from",
          "type": "address"
        },
        {
          "internalType": "address",
          "name": "to",
          "type": "address"
        },
        {
          "internalType": "uint256",
          "name": "tokenId",
          "type": "uint256"
        },
        {
          "internalType": "bytes",
          "name": "data",
          "type": "bytes"
        }
      ],
      "name": "safeTransferFrom",
      "outputs": [],
      "stateMutability": "nonpayable",
      "type": "function"
    },
    {
      "inputs": [
        {
          "internalType": "address",
          "name": "operator",
          "type": "address"
        },
        {
          "internalType": "bool",
          "name": "approved",
          "type": "bool"
        }
      ],
      "name": "setApprovalForAll",
      "outputs": [],
      "stateMutability": "nonpayable",
      "type": "function"
    },
    {
      "inputs": [
        {
          "internalType": "bytes4",
          "name": "interfaceId",
          "type": "bytes4"
        }
      ],
      "name": "supportsInterface",
      "outputs": [
        {
          "internalType": "bool",
          "name": "",
          "type": "bool"
        }
      ],
      "stateMutability": "view",
      "type": "function"
    },
    {
      "inputs": [],
      "name": "symbol",
      "outputs": [
        {
          "internalType": "string",
          "name": "",
          "type": "string"
        }
      ],
      "stateMutability": "view",
      "type": "function"
    },
    {
      "inputs": [
        {
          "internalType": "uint256",
          "name": "tokenId",
          "type": "uint256"
        }
      ],
      "name": "tokenURI",
      "outputs": [
        {
          "internalType": "string",
          "name": "",
          "type": "string"
        }
      ],
      "stateMutability": "view",
      "type": "function"
    },
    {
      "inputs": [
        {
          "internalType": "address",
          "name": "from",
          "type": "address"
        },
        {
          "internalType": "address",
          "name": "to",
          "type": "address"
        },
        {
          "internalType": "uint256",
          "name": "tokenId",
          "type": "uint256"
        }
      ],
      "name": "transferFrom",
      "outputs": [],
      "stateMutability": "nonpayable",
      "type": "function"
    },
    {
      "inputs": [
        {
          "internalType": "address",
          "name": "newOwner",
          "type": "address"
        }
      ],
      "name": "transferOwnership",
      "outputs": [],
      "stateMutability": "nonpayable",
      "type": "function"
    }
  ],
  "bytecode": "0x608060405234801561001057600080fd5b50604051611b33380380611b3383398101604081905261002f91610179565b8181600061003d838261026b565b50600161004a828261026b565b50505061006361005e61006a60201b60201c565b61006e565b5050610329565b3390565b600780546001600160a01b038381166001600160a01b0319831681179093556040519116919082907f8be0079c531659141344cd1fd0a4f28419497f9722a3daafe3b4186f6b6457e090600090a35050565b634e487b7160e01b600052604160045260246000fd5b600082601f8301126100e757600080fd5b81516001600160401b03811115610100576101006100c0565b604051601f8201601f19908116603f011681016001600160401b038111828210171561012e5761012e6100c0565b60405281815283820160200185101561014657600080fd5b60005b8281101561016557602081860181015183830182015201610149565b506000918101602001919091529392505050565b6000806040838503121561018c57600080fd5b82516001600160401b038111156101a257600080fd5b6101ae858286016100d6565b602085015190935090506001600160401b038111156101cc57600080fd5b6101d8858286016100d6565b9150509250929050565b600181811c908216806101f657607f821691505b60208210810361021657634e487b7160e01b600052602260045260246000fd5b50919050565b601f82111561026657806000526020600020601f840160051c810160208510156102435750805b601f840160051c820191505b81811015610263576000815560010161024f565b50505b505050565b81516001600160401b03811115610284576102846100c0565b6102988161029284546101e2565b8461021c565b6020601f8211600181146102cc57600083156102b45750848201515b600019600385901b1c1916600184901b178455610263565b600084815260208120601f198516915b828110156102fc57878501518255602094850194600190920191016102dc565b508482101561031a5786840151600019600387901b60f8161c191681555b50505050600190811b01905550565b6117fb806103386000396000f3fe608060405234801561001057600080fd5b506004361061010b5760003560e01c8063715018a6116100a2578063b88d4fde11610071578063b88d4fde1461021b578063c87b56dd1461022e578063e985e9c514610241578063eacabe141461027d578063f2fde38b1461029057600080fd5b8063715018a6146101e75780638da5cb5b146101ef57806395d89b4114610200578063a22cb4651461020857600080fd5b806323b872dd116100de57806323b872dd1461018d57806342842e0e146101a05780636352211e146101b357806370a08231146101c657600080fd5b806301ffc9a71461011057806306fdde0314610138578063081812fc1461014d578063095ea7b314610178575b600080fd5b61012361011e3660046111fd565b6102a3565b60405190151581526020015b60405180910390f35b6101406102ce565b60405161012f919061126a565b61016061015b36600461127d565b610360565b6040516001600160a01b03909116815260200161012f565b61018b6101863660046112b2565b610387565b005b61018b61019b3660046112dc565b6104a1565b61018b6101ae3660046112dc565b6104d2565b6101606101c136600461127d565b6104ed565b6101d96101d4366004611319565b61054d565b60405190815260200161012f565b61018b6105d3565b6007546001600160a01b0316610160565b6101406105e7565b61018b610216366004611334565b6105f6565b61018b610229366004611400565b610605565b61014061023c36600461127d565b61063d565b61012361024f36600461147c565b6001600160a01b03918216600090815260056020908152604080832093909416825291909152205460ff1690565b6101d961028b3660046114af565b61074d565b61018b61029e366004611319565b61078d565b60006001600160e01b03198216632483248360e11b14806102c857506102c882610806565b92915050565b6060600080546102dd90611511565b80601f016020809104026020016040519081016040528092919081815260200182805461030990611511565b80156103565780601f1061032b57610100808354040283529160200191610356565b820191906000526020600020905b81548152906001019060200180831161033957829003601f168201915b5050505050905090565b600061036b82610856565b506000908152600460205260409020546001600160a01b031690565b6000610392826104ed565b9050806001600160a01b0316836001600160a01b0316036104045760405162461bcd60e51b815260206004820152602160248201527f4552433732313a20617070726f76616c20746f2063757272656e74206f776e656044820152603960f91b60648201526084015b60405180910390fd5b336001600160a01b03821614806104205750610420813361024f565b6104925760405162461bcd60e51b815260206004820152603d60248201527f4552433732313a20617070726f76652063616c6c6572206973206e6f7420746f60448201527f6b656e206f776e6572206f7220617070726f76656420666f7220616c6c00000060648201526084016103fb565b61049c83836108b5565b505050565b6104ab3382610923565b6104c75760405162461bcd60e51b81526004016103fb9061154b565b61049c8383836109a1565b61049c83838360405180602001604052806000815250610605565b6000818152600260205260408120546001600160a01b0316806102c85760405162461bcd60e51b8152602060048201526018602482015277115490cdcc8c4e881a5b9d985b1a59081d1bdad95b88125160421b60448201526064016103fb565b60006001600160a01b0382166105b75760405162461bcd60e51b815260206004820152602960248201527f4552433732313a2061646472657373207a65726f206973206e6f7420612076616044820152683634b21037bbb732b960b91b60648201526084016103fb565b506001600160a01b031660009081526003602052604090205490565b6105db610b05565b6105e56000610b5f565b565b6060600180546102dd90611511565b610601338383610bb1565b5050565b61060f3383610923565b61062b5760405162461bcd60e51b81526004016103fb9061154b565b61063784848484610c7f565b50505050565b606061064882610856565b6000828152600660205260408120805461066190611511565b80601f016020809104026020016040519081016040528092919081815260200182805461068d90611511565b80156106da5780601f106106af576101008083540402835291602001916106da565b820191906000526020600020905b8154815290600101906020018083116106bd57829003601f168201915b5050505050905060006106f860408051602081019091526000815290565b9050805160000361070a575092915050565b81511561073c578082604051602001610724929190611598565b60405160208183030381529060405292505050919050565b61074584610cb2565b949350505050565b6000610757610b05565b610765600880546001019055565b600061077060085490565b905061077c8482610d25565b6107868184610eb0565b9392505050565b610795610b05565b6001600160a01b0381166107fa5760405162461bcd60e51b815260206004820152602660248201527f4f776e61626c653a206e6577206f776e657220697320746865207a65726f206160448201526564647265737360d01b60648201526084016103fb565b61080381610b5f565b50565b60006001600160e01b031982166380ac58cd60e01b148061083757506001600160e01b03198216635b5e139f60e01b145b806102c857506301ffc9a760e01b6001600160e01b03198316146102c8565b6000818152600260205260409020546001600160a01b03166108035760405162461bcd60e51b8152602060048201526018602482015277115490cdcc8c4e881a5b9d985b1a59081d1bdad95b88125160421b60448201526064016103fb565b600081815260046020526040902080546001600160a01b0319166001600160a01b03841690811790915581906108ea826104ed565b6001600160a01b03167f8c5be1e5ebec7d5bd14f71427d1e84f3dd0314c0f7b2291e5b200ac8c7c3b92560405160405180910390a45050565b60008061092f836104ed565b9050806001600160a01b0316846001600160a01b0316148061097657506001600160a01b0380821660009081526005602090815260408083209388168352929052205460ff165b806107455750836001600160a01b031661098f84610360565b6001600160a01b031614949350505050565b826001600160a01b03166109b4826104ed565b6001600160a01b0316146109da5760405162461bcd60e51b81526004016103fb906115c7565b6001600160a01b038216610a3c5760405162461bcd60e51b8152602060048201526024808201527f4552433732313a207472616e7366657220746f20746865207a65726f206164646044820152637265737360e01b60648201526084016103fb565b826001600160a01b0316610a4f826104ed565b6001600160a01b031614610a755760405162461bcd60e51b81526004016103fb906115c7565b600081815260046020908152604080832080546001600160a01b03199081169091556001600160a01b0387811680865260038552838620805460001901905590871680865283862080546001019055868652600290945282852080549092168417909155905184937fddf252ad1be2c89b69c2b068fc378daa952ba7f163c4a11628f55a4df523b3ef91a4505050565b6007546001600160a01b031633146105e55760405162461bcd60e51b815260206004820181905260248201527f4f776e61626c653a2063616c6c6572206973206e6f7420746865206f776e657260448201526064016103fb565b600780546001600160a01b038381166001600160a01b0319831681179093556040519116919082907f8be0079c531659141344cd1fd0a4f28419497f9722a3daafe3b4186f6b6457e090600090a35050565b816001600160a01b0316836001600160a01b031603610c125760405162461bcd60e51b815260206004820152601960248201527f4552433732313a20617070726f766520746f2063616c6c65720000000000000060448201526064016103fb565b6001600160a01b03838116600081815260056020908152604080832094871680845294825291829020805460ff191686151590811790915591519182527f17307eab39ab6107e8899845ad3d59bd9653f200f220920489ca2b5937696c31910160405180910390a3505050565b610c8a8484846109a1565b610c9684848484610f7b565b6106375760405162461bcd60e51b81526004016103fb9061160c565b6060610cbd82610856565b6000610cd460408051602081019091526000815290565b90506000815111610cf45760405180602001604052806000815250610786565b80610cfe8461107c565b604051602001610d0f929190611598565b6040516020818303038152906040529392505050565b6001600160a01b038216610d7b5760405162461bcd60e51b815260206004820181905260248201527f4552433732313a206d696e7420746f20746865207a65726f206164647265737360448201526064016103fb565b6000818152600260205260409020546001600160a01b031615610de05760405162461bcd60e51b815260206004820152601c60248201527f4552433732313a20746f6b656e20616c7265616479206d696e7465640000000060448201526064016103fb565b6000818152600260205260409020546001600160a01b031615610e455760405162461bcd60e51b815260206004820152601c60248201527f4552433732313a20746f6b656e20616c7265616479206d696e7465640000000060448201526064016103fb565b6001600160a01b038216600081815260036020908152604080832080546001019055848352600290915280822080546001600160a01b0319168417905551839291907fddf252ad1be2c89b69c2b068fc378daa952ba7f163c4a11628f55a4df523b3ef908290a45050565b6000828152600260205260409020546001600160a01b0316610f2b5760405162461bcd60e51b815260206004820152602e60248201527f45524337323155524953746f726167653a2055524920736574206f66206e6f6e60448201526d32bc34b9ba32b73a103a37b5b2b760911b60648201526084016103fb565b6000828152600660205260409020610f4382826116ac565b506040518281527ff8e1a15aba9398e019f0b49df1a4fde98ee17ae345cb5f6b5e2c27f5033e8ce79060200160405180910390a15050565b60006001600160a01b0384163b1561107157604051630a85bd0160e11b81526001600160a01b0385169063150b7a0290610fbf90339089908890889060040161176b565b6020604051808303816000875af1925050508015610ffa575060408051601f3d908101601f19168201909252610ff7918101906117a8565b60015b611057573d808015611028576040519150601f19603f3d011682016040523d82523d6000602084013e61102d565b606091505b50805160000361104f5760405162461bcd60e51b81526004016103fb9061160c565b805181602001fd5b6001600160e01b031916630a85bd0160e11b149050610745565b506001949350505050565b606060006110898361110f565b600101905060008167ffffffffffffffff8111156110a9576110a9611370565b6040519080825280601f01601f1916602001820160405280156110d3576020820181803683370190505b5090508181016020015b600019016f181899199a1a9b1b9c1cb0b131b232b360811b600a86061a8153600a85049450846110dd57509392505050565b60008072184f03e93ff9f4daa797ed6e38ed64bf6a1f0160401b831061114e5772184f03e93ff9f4daa797ed6e38ed64bf6a1f0160401b830492506040015b6d04ee2d6d415b85acef8100000000831061117a576d04ee2d6d415b85acef8100000000830492506020015b662386f26fc10000831061119857662386f26fc10000830492506010015b6305f5e10083106111b0576305f5e100830492506008015b61271083106111c457612710830492506004015b606483106111d6576064830492506002015b600a83106102c85760010192915050565b6001600160e01b03198116811461080357600080fd5b60006020828403121561120f57600080fd5b8135610786816111e7565b60005b8381101561123557818101518382015260200161121d565b50506000910152565b6000815180845261125681602086016020860161121a565b601f01601f19169290920160200192915050565b602081526000610786602083018461123e565b60006020828403121561128f57600080fd5b5035919050565b80356001600160a01b03811681146112ad57600080fd5b919050565b600080604083850312156112c557600080fd5b6112ce83611296565b946020939093013593505050565b6000806000606084860312156112f157600080fd5b6112fa84611296565b925061130860208501611296565b929592945050506040919091013590565b60006020828403121561132b57600080fd5b61078682611296565b6000806040838503121561134757600080fd5b61135083611296565b91506020830135801515811461136557600080fd5b809150509250929050565b634e487b7160e01b600052604160045260246000fd5b60008067ffffffffffffffff8411156113a1576113a1611370565b50604051601f19601f85018116603f0116810181811067ffffffffffffffff821117156113d0576113d0611370565b6040528381529050808284018510156113e857600080fd5b83836020830137600060208583010152509392505050565b6000806000806080858703121561141657600080fd5b61141f85611296565b935061142d60208601611296565b925060408501359150606085013567ffffffffffffffff81111561145057600080fd5b8501601f8101871361146157600080fd5b61147087823560208401611386565b91505092959194509250565b6000806040838503121561148f57600080fd5b61149883611296565b91506114a660208401611296565b90509250929050565b600080604083850312156114c257600080fd5b6114cb83611296565b9150602083013567ffffffffffffffff8111156114e757600080fd5b8301601f810185136114f857600080fd5b61150785823560208401611386565b9150509250929050565b600181811c9082168061152557607f821691505b60208210810361154557634e487b7160e01b600052602260045260246000fd5b50919050565b6020808252602d908201527f4552433732313a2063616c6c6572206973206e6f7420746f6b656e206f776e6560408201526c1c881bdc88185c1c1c9bdd9959609a1b606082015260800190565b600083516115aa81846020880161121a565b8351908301906115be81836020880161121a565b01949350505050565b60208082526025908201527f4552433732313a207472616e736665722066726f6d20696e636f72726563742060408201526437bbb732b960d91b606082015260800190565b60208082526032908201527f4552433732313a207472616e7366657220746f206e6f6e20455243373231526560408201527131b2b4bb32b91034b6b83632b6b2b73a32b960711b606082015260800190565b601f82111561049c57806000526020600020601f840160051c810160208510156116855750805b601f840160051c820191505b818110156116a55760008155600101611691565b5050505050565b815167ffffffffffffffff8111156116c6576116c6611370565b6116da816116d48454611511565b8461165e565b6020601f82116001811461170e57600083156116f65750848201515b600019600385901b1c1916600184901b1784556116a5565b600084815260208120601f198516915b8281101561173e578785015182556020948501946001909201910161171e565b508482101561175c5786840151600019600387901b60f8161c191681555b50505050600190811b01905550565b6001600160a01b038581168252841660208201526040810183905260806060820181905260009061179e9083018461123e565b9695505050505050565b6000602082840312156117ba57600080fd5b8151610786816111e756fea26469706673582212201f490d37e542db7a5413cf81aca57382c201647119abd5c41986feccadbb3a6564736f6c634300081a0033",
  "linkReferences": {},
  "deployedLinkReferences": {}
}